{
    "contractName": "Second",
    "abi": [
        {
            "anonymous": false,
            "inputs": [
                {
                    "indexed": false,
                    "internalType": "address",
                    "name": "sender",
                    "type": "address"
                },
                {
                    "indexed": false,
                    "internalType": "uint256",
                    "name": "amount",
                    "type": "uint256"
                },
                {
                    "indexed": false,
                    "internalType": "uint256",
                    "name": "date",
                    "type": "uint256"
                }
            ],
            "name": "Credited",
            "type": "event"
        },
        {
            "inputs": [
                {
                    "internalType": "uint256",
                    "name": "_data",
                    "type": "uint256"
                }
            ],
            "name": "store",
            "outputs": [],
            "stateMutability": "nonpayable",
            "type": "function"
        },
        {
            "inputs": [],
            "name": "fetch",
            "outputs": [
                {
                    "internalType": "uint256",
                    "name": "",
                    "type": "uint256"
                }
            ],
            "stateMutability": "view",
            "type": "function"
        },
        {
            "inputs": [
                {
                    "internalType": "uint256",
                    "name": "amount",
                    "type": "uint256"
                }
            ],
            "name": "credit",
            "outputs": [],
            "stateMutability": "payable",
            "type": "function"
        }
    ],
    "bytecode": "0x608060405234801561000f575f80fd5b506102288061001d5f395ff3fe608060405260043610610033575f3560e01c80636057361d1461003757806378da744b1461005f578063a95c372d1461007b575b5f80fd5b348015610042575f80fd5b5061005d6004803603810190610058919061012b565b6100a5565b005b6100796004803603810190610074919061012b565b6100ae565b005b348015610086575f80fd5b5061008f6100ec565b60405161009c9190610165565b60405180910390f35b805f8190555050565b7f796a6ec99f41042b589b3c8dfab9ec6ae027e9c6599a6a4e311aa00a19ebdb1f3382426040516100e1939291906101bd565b60405180910390a150565b5f8054905090565b5f80fd5b5f819050919050565b61010a816100f8565b8114610114575f80fd5b50565b5f8135905061012581610101565b92915050565b5f602082840312156101405761013f6100f4565b5b5f61014d84828501610117565b91505092915050565b61015f816100f8565b82525050565b5f6020820190506101785f830184610156565b92915050565b5f73ffffffffffffffffffffffffffffffffffffffff82169050919050565b5f6101a78261017e565b9050919050565b6101b78161019d565b82525050565b5f6060820190506101d05f8301866101ae565b6101dd6020830185610156565b6101ea6040830184610156565b94935050505056fea2646970667358221220dd25b36cc49a26cdcbe7fd660d397336ae09732d66fce1fe6bc17e9551cbc30564736f6c63430008140033",
    "immutableReferences": {},
    "source": "// SPDX-License-Identifier: Unlicensed\n\npragma solidity ^0.8.0;\n\ncontract Second {\n    // global variables\n    uint private data;\n\n    // events to be emitted\n    event Credited ( address sender, uint amount, uint date );\n\n    function store (uint _data) external{\n        data = _data;\n    }\n\n    function fetch () external view returns (uint) {\n        return data;\n    }\n\n    function credit (uint amount) external payable {\n        emit Credited(msg.sender, amount, block.timestamp);\n    }\n}",
    "sourcePath": "/home/arewageek/dev/web3/truffle/firsts/2/contracts/Second.sol",
    "compiler": {
        "name": "solc",
        "version": "0.8.20+commit.a1b79de6.Emscripten.clang"
    },
    "schemaVersion": "3.4.14",
    "updatedAt": "2023-10-01T21:36:43.859Z",
    "devdoc": {
        "kind": "dev",
        "methods": {},
        "version": 1
    },
    "userdoc": {
        "kind": "user",
        "methods": {},
        "version": 1
    }
}